{
  "contractName": "PatientRole",
  "abi": [
    {
      "inputs": [],
      "payable": false,
      "stateMutability": "nonpayable",
      "type": "constructor",
      "signature": "constructor"
    },
    {
      "anonymous": false,
      "inputs": [
        {
          "indexed": true,
          "name": "account",
          "type": "address"
        }
      ],
      "name": "PatientAdded",
      "type": "event",
      "signature": "0xa58cff07db0adda3ab7a40bd2f18ab57210bf38391a52ffd2e8eee6b8bdec71a"
    },
    {
      "anonymous": false,
      "inputs": [
        {
          "indexed": true,
          "name": "account",
          "type": "address"
        }
      ],
      "name": "PatientRemoved",
      "type": "event",
      "signature": "0x053a4badf166f01c4b02f6bcb71d2d67734470d0866282e291e73001aa25c769"
    },
    {
      "constant": true,
      "inputs": [
        {
          "name": "account",
          "type": "address"
        }
      ],
      "name": "isPatient",
      "outputs": [
        {
          "name": "",
          "type": "bool"
        }
      ],
      "payable": false,
      "stateMutability": "view",
      "type": "function",
      "signature": "0x8f9c79ed"
    },
    {
      "constant": false,
      "inputs": [
        {
          "name": "account",
          "type": "address"
        }
      ],
      "name": "addPatient",
      "outputs": [],
      "payable": false,
      "stateMutability": "nonpayable",
      "type": "function",
      "signature": "0x6d263ceb"
    },
    {
      "constant": false,
      "inputs": [],
      "name": "renouncePatient",
      "outputs": [],
      "payable": false,
      "stateMutability": "nonpayable",
      "type": "function",
      "signature": "0x81a07c36"
    }
  ],
  "bytecode": "0x608060405234801561001057600080fd5b506100293361002e640100000000026401000000009004565b6101e5565b61004c60008261009264010000000002610286176401000000009004565b8073ffffffffffffffffffffffffffffffffffffffff167fa58cff07db0adda3ab7a40bd2f18ab57210bf38391a52ffd2e8eee6b8bdec71a60405160405180910390a250565b600073ffffffffffffffffffffffffffffffffffffffff168173ffffffffffffffffffffffffffffffffffffffff16141515156100ce57600080fd5b6100e78282610151640100000000026401000000009004565b1515156100f357600080fd5b60018260000160008373ffffffffffffffffffffffffffffffffffffffff1673ffffffffffffffffffffffffffffffffffffffff16815260200190815260200160002060006101000a81548160ff0219169083151502179055505050565b60008073ffffffffffffffffffffffffffffffffffffffff168273ffffffffffffffffffffffffffffffffffffffff161415151561018e57600080fd5b8260000160008373ffffffffffffffffffffffffffffffffffffffff1673ffffffffffffffffffffffffffffffffffffffff16815260200190815260200160002060009054906101000a900460ff16905092915050565b610411806101f46000396000f300608060405260043610610057576000357c0100000000000000000000000000000000000000000000000000000000900463ffffffff1680636d263ceb1461005c57806381a07c361461009f5780638f9c79ed146100b6575b600080fd5b34801561006857600080fd5b5061009d600480360381019080803573ffffffffffffffffffffffffffffffffffffffff169060200190929190505050610111565b005b3480156100ab57600080fd5b506100b4610131565b005b3480156100c257600080fd5b506100f7600480360381019080803573ffffffffffffffffffffffffffffffffffffffff16906020019092919050505061013c565b604051808215151515815260200191505060405180910390f35b61011a3361013c565b151561012557600080fd5b61012e81610150565b50565b61013a336101a1565b565b60006101496000836101f2565b9050919050565b61015b600082610286565b8073ffffffffffffffffffffffffffffffffffffffff167fa58cff07db0adda3ab7a40bd2f18ab57210bf38391a52ffd2e8eee6b8bdec71a60405160405180910390a250565b6101ac600082610336565b8073ffffffffffffffffffffffffffffffffffffffff167f053a4badf166f01c4b02f6bcb71d2d67734470d0866282e291e73001aa25c76960405160405180910390a250565b60008073ffffffffffffffffffffffffffffffffffffffff168273ffffffffffffffffffffffffffffffffffffffff161415151561022f57600080fd5b8260000160008373ffffffffffffffffffffffffffffffffffffffff1673ffffffffffffffffffffffffffffffffffffffff16815260200190815260200160002060009054906101000a900460ff16905092915050565b600073ffffffffffffffffffffffffffffffffffffffff168173ffffffffffffffffffffffffffffffffffffffff16141515156102c257600080fd5b6102cc82826101f2565b1515156102d857600080fd5b60018260000160008373ffffffffffffffffffffffffffffffffffffffff1673ffffffffffffffffffffffffffffffffffffffff16815260200190815260200160002060006101000a81548160ff0219169083151502179055505050565b600073ffffffffffffffffffffffffffffffffffffffff168173ffffffffffffffffffffffffffffffffffffffff161415151561037257600080fd5b61037c82826101f2565b151561038757600080fd5b60008260000160008373ffffffffffffffffffffffffffffffffffffffff1673ffffffffffffffffffffffffffffffffffffffff16815260200190815260200160002060006101000a81548160ff02191690831515021790555050505600a165627a7a723058202bb783065f7bbd50e5b0d067607222bada19dac91abdd6fceb4d2af092e90d990029",
  "source": "pragma solidity ^0.4.24;\n\n// Import the library 'Roles'\nimport \"./Roles.sol\";\n\n// Define a contract 'PatientRole' to manage this role - add, remove, check\ncontract PatientRole {\n  using Roles for Roles.Role;\n\n  // Define 2 events, one for Adding, and other for Removing\n  event PatientAdded(address indexed account);\n  event PatientRemoved(address indexed account);\n\n  // Define a struct 'patients' by inheriting from 'Roles' library, struct Role\n  Roles.Role private patients;\n\n  // In the constructor make the address that deploys this contract the 1st patient\n  constructor() public {\n    _addPatient(msg.sender);\n  }\n\n  // Define a modifier that checks to see if msg.sender has the appropriate role\n  modifier onlyPatient() {\n    require(isPatient(msg.sender));\n    _;\n  }\n\n  // Define a function 'isPatient' to check this role\n  function isPatient(address account) public view returns (bool) {\n    return Roles.has(patients, account);\n  }\n\n  // Define a function 'addPatient' that adds this role\n  function addPatient(address account) public onlyPatient {\n    _addPatient(account);\n  }\n\n  // Define a function 'renouncePatient' to renounce this role\n  function renouncePatient() public {\n    _removePatient(msg.sender);\n  }\n\n  // Define an internal function '_addPatient' to add this role, called by 'addPatient'\n  function _addPatient(address account) internal {\n    Roles.add(patients, account);\n    emit PatientAdded(account);\n  }\n\n  // Define an internal function '_removePatient' to remove this role, called by 'removePatient'\n  function _removePatient(address account) internal {\n    Roles.remove(patients, account);\n    emit PatientRemoved(account);\n  }\n}",
  "sourcePath": "/Users/iSh3lan/Udacity/Block Chain/Project 7/p6b_ex/project-6/contracts/medicineaccesscontrol/PatientRole.sol",
  "compiler": {
    "name": "solc",
    "version": "0.4.24+commit.e67f0147.Emscripten.clang"
  },
  "schemaVersion": "3.0.1",
  "updatedAt": "2019-03-31T18:40:11.905Z",
  "devdoc": {
    "methods": {}
  },
  "userdoc": {
    "methods": {}
  }
}