{
  "contractName": "PharmacistRole",
  "abi": [
    {
      "inputs": [],
      "payable": false,
      "stateMutability": "nonpayable",
      "type": "constructor",
      "signature": "constructor"
    },
    {
      "anonymous": false,
      "inputs": [
        {
          "indexed": true,
          "name": "account",
          "type": "address"
        }
      ],
      "name": "PharmacistAdded",
      "type": "event",
      "signature": "0x5a4264410853372bdd7255ebc9624cb523fc039cd6f9f1855165194738125f63"
    },
    {
      "anonymous": false,
      "inputs": [
        {
          "indexed": true,
          "name": "account",
          "type": "address"
        }
      ],
      "name": "PharmacistRemoved",
      "type": "event",
      "signature": "0x9d17ec7e57a5118cf27abf33370bcc6f007c27a9706ab4cc473a76fe552447d2"
    },
    {
      "constant": true,
      "inputs": [
        {
          "name": "account",
          "type": "address"
        }
      ],
      "name": "isPharmacist",
      "outputs": [
        {
          "name": "",
          "type": "bool"
        }
      ],
      "payable": false,
      "stateMutability": "view",
      "type": "function",
      "signature": "0x82946ee2"
    },
    {
      "constant": false,
      "inputs": [
        {
          "name": "account",
          "type": "address"
        }
      ],
      "name": "addPharmacist",
      "outputs": [],
      "payable": false,
      "stateMutability": "nonpayable",
      "type": "function",
      "signature": "0xc09e2693"
    },
    {
      "constant": false,
      "inputs": [],
      "name": "renouncePharmacist",
      "outputs": [],
      "payable": false,
      "stateMutability": "nonpayable",
      "type": "function",
      "signature": "0x5ae63247"
    }
  ],
  "bytecode": "0x608060405234801561001057600080fd5b506100293361002e640100000000026401000000009004565b6101e5565b61004c60008261009264010000000002610335176401000000009004565b8073ffffffffffffffffffffffffffffffffffffffff167f5a4264410853372bdd7255ebc9624cb523fc039cd6f9f1855165194738125f6360405160405180910390a250565b600073ffffffffffffffffffffffffffffffffffffffff168173ffffffffffffffffffffffffffffffffffffffff16141515156100ce57600080fd5b6100e78282610151640100000000026401000000009004565b1515156100f357600080fd5b60018260000160008373ffffffffffffffffffffffffffffffffffffffff1673ffffffffffffffffffffffffffffffffffffffff16815260200190815260200160002060006101000a81548160ff0219169083151502179055505050565b60008073ffffffffffffffffffffffffffffffffffffffff168273ffffffffffffffffffffffffffffffffffffffff161415151561018e57600080fd5b8260000160008373ffffffffffffffffffffffffffffffffffffffff1673ffffffffffffffffffffffffffffffffffffffff16815260200190815260200160002060009054906101000a900460ff16905092915050565b610411806101f46000396000f300608060405260043610610057576000357c0100000000000000000000000000000000000000000000000000000000900463ffffffff1680635ae632471461005c57806382946ee214610073578063c09e2693146100ce575b600080fd5b34801561006857600080fd5b50610071610111565b005b34801561007f57600080fd5b506100b4600480360381019080803573ffffffffffffffffffffffffffffffffffffffff16906020019092919050505061011c565b604051808215151515815260200191505060405180910390f35b3480156100da57600080fd5b5061010f600480360381019080803573ffffffffffffffffffffffffffffffffffffffff169060200190929190505050610130565b005b61011a33610150565b565b60006101296000836101a1565b9050919050565b6101393361011c565b151561014457600080fd5b61014d81610235565b50565b61015b600082610286565b8073ffffffffffffffffffffffffffffffffffffffff167f9d17ec7e57a5118cf27abf33370bcc6f007c27a9706ab4cc473a76fe552447d260405160405180910390a250565b60008073ffffffffffffffffffffffffffffffffffffffff168273ffffffffffffffffffffffffffffffffffffffff16141515156101de57600080fd5b8260000160008373ffffffffffffffffffffffffffffffffffffffff1673ffffffffffffffffffffffffffffffffffffffff16815260200190815260200160002060009054906101000a900460ff16905092915050565b610240600082610335565b8073ffffffffffffffffffffffffffffffffffffffff167f5a4264410853372bdd7255ebc9624cb523fc039cd6f9f1855165194738125f6360405160405180910390a250565b600073ffffffffffffffffffffffffffffffffffffffff168173ffffffffffffffffffffffffffffffffffffffff16141515156102c257600080fd5b6102cc82826101a1565b15156102d757600080fd5b60008260000160008373ffffffffffffffffffffffffffffffffffffffff1673ffffffffffffffffffffffffffffffffffffffff16815260200190815260200160002060006101000a81548160ff0219169083151502179055505050565b600073ffffffffffffffffffffffffffffffffffffffff168173ffffffffffffffffffffffffffffffffffffffff161415151561037157600080fd5b61037b82826101a1565b15151561038757600080fd5b60018260000160008373ffffffffffffffffffffffffffffffffffffffff1673ffffffffffffffffffffffffffffffffffffffff16815260200190815260200160002060006101000a81548160ff02191690831515021790555050505600a165627a7a723058204594196bcea9c63b4a2d27e86375a0922ddb19fdeb4b8bbc93985d02b7ac3d5e0029",
  "source": "pragma solidity ^0.4.24;\n\n// Import the library 'Roles'\nimport \"./Roles.sol\";\n\n// Define a contract 'PharmacistRole' to manage this role - add, remove, check\ncontract PharmacistRole {\n  using Roles for Roles.Role;\n\n  // Define 2 events, one for Adding, and other for Removing\n  event PharmacistAdded(address indexed account);\n  event PharmacistRemoved(address indexed account);\n\n  // Define a struct 'pharmacists' by inheriting from 'Roles' library, struct Role\n  Roles.Role private pharmacists;\n  // In the constructor make the address that deploys this contract the 1st pharmacist\n  constructor() public {\n    _addPharmacist(msg.sender);\n  }\n\n  // Define a modifier that checks to see if msg.sender has the appropriate role\n  modifier onlyPharmacist() {\n    require(isPharmacist(msg.sender));\n    _;\n  }\n\n  // Define a function 'isPharmacist' to check this role\n  function isPharmacist(address account) public view returns (bool) {\n    return Roles.has(pharmacists, account);\n  }\n\n  // Define a function 'addPharmacist' that adds this role\n  function addPharmacist(address account) public onlyPharmacist {\n    _addPharmacist(account);\n  }\n\n  // Define a function 'renouncePharmacist' to renounce this role\n  function renouncePharmacist() public {\n    _removePharmacist(msg.sender);\n  }\n\n  // Define an internal function '_addPharmacist' to add this role, called by 'addPharmacist'\n  function _addPharmacist(address account) internal {\n    Roles.add(pharmacists, account);\n    emit PharmacistAdded(account);\n  }\n\n  // Define an internal function '_removePharmacist' to remove this role, called by 'removePharmacist'\n  function _removePharmacist(address account) internal {\n    Roles.remove(pharmacists, account);\n    emit PharmacistRemoved(account);\n  }\n}",
  "sourcePath": "/Users/iSh3lan/Udacity/Block Chain/Project 7/p6b_ex/project-6/contracts/medicineaccesscontrol/PharmacistRole.sol",
  "compiler": {
    "name": "solc",
    "version": "0.4.24+commit.e67f0147.Emscripten.clang"
  },
  "schemaVersion": "3.0.1",
  "updatedAt": "2019-03-31T18:40:11.895Z",
  "devdoc": {
    "methods": {}
  },
  "userdoc": {
    "methods": {}
  }
}