{
  "contractName": "SupplyChain",
  "abi": [
    {
      "constant": true,
      "inputs": [
        {
          "name": "account",
          "type": "address"
        }
      ],
      "name": "isManufacturer",
      "outputs": [
        {
          "name": "",
          "type": "bool"
        }
      ],
      "payable": false,
      "stateMutability": "view",
      "type": "function",
      "signature": "0x17d4a491"
    },
    {
      "constant": false,
      "inputs": [],
      "name": "renouncePharmacist",
      "outputs": [],
      "payable": false,
      "stateMutability": "nonpayable",
      "type": "function",
      "signature": "0x5ae63247"
    },
    {
      "constant": false,
      "inputs": [
        {
          "name": "account",
          "type": "address"
        }
      ],
      "name": "addManufacturer",
      "outputs": [],
      "payable": false,
      "stateMutability": "nonpayable",
      "type": "function",
      "signature": "0x5f8a5afa"
    },
    {
      "constant": false,
      "inputs": [],
      "name": "renounceDistributor",
      "outputs": [],
      "payable": false,
      "stateMutability": "nonpayable",
      "type": "function",
      "signature": "0x644241db"
    },
    {
      "constant": false,
      "inputs": [
        {
          "name": "account",
          "type": "address"
        }
      ],
      "name": "addPatient",
      "outputs": [],
      "payable": false,
      "stateMutability": "nonpayable",
      "type": "function",
      "signature": "0x6d263ceb"
    },
    {
      "constant": false,
      "inputs": [
        {
          "name": "account",
          "type": "address"
        }
      ],
      "name": "addDistributor",
      "outputs": [],
      "payable": false,
      "stateMutability": "nonpayable",
      "type": "function",
      "signature": "0x7250e224"
    },
    {
      "constant": false,
      "inputs": [],
      "name": "renouncePatient",
      "outputs": [],
      "payable": false,
      "stateMutability": "nonpayable",
      "type": "function",
      "signature": "0x81a07c36"
    },
    {
      "constant": true,
      "inputs": [
        {
          "name": "account",
          "type": "address"
        }
      ],
      "name": "isPharmacist",
      "outputs": [
        {
          "name": "",
          "type": "bool"
        }
      ],
      "payable": false,
      "stateMutability": "view",
      "type": "function",
      "signature": "0x82946ee2"
    },
    {
      "constant": true,
      "inputs": [
        {
          "name": "account",
          "type": "address"
        }
      ],
      "name": "isDistributor",
      "outputs": [
        {
          "name": "",
          "type": "bool"
        }
      ],
      "payable": false,
      "stateMutability": "view",
      "type": "function",
      "signature": "0x8f0c86fa"
    },
    {
      "constant": true,
      "inputs": [
        {
          "name": "account",
          "type": "address"
        }
      ],
      "name": "isPatient",
      "outputs": [
        {
          "name": "",
          "type": "bool"
        }
      ],
      "payable": false,
      "stateMutability": "view",
      "type": "function",
      "signature": "0x8f9c79ed"
    },
    {
      "constant": false,
      "inputs": [
        {
          "name": "account",
          "type": "address"
        }
      ],
      "name": "addPharmacist",
      "outputs": [],
      "payable": false,
      "stateMutability": "nonpayable",
      "type": "function",
      "signature": "0xc09e2693"
    },
    {
      "constant": false,
      "inputs": [],
      "name": "renounceManufacturer",
      "outputs": [],
      "payable": false,
      "stateMutability": "nonpayable",
      "type": "function",
      "signature": "0xde07f34e"
    },
    {
      "inputs": [],
      "payable": true,
      "stateMutability": "payable",
      "type": "constructor",
      "signature": "constructor"
    },
    {
      "anonymous": false,
      "inputs": [
        {
          "indexed": false,
          "name": "upc",
          "type": "uint256"
        }
      ],
      "name": "Made",
      "type": "event",
      "signature": "0xeb8109592a383473c76afa62041a6dbabac0ca80d859bbdffb13c5a70c454b90"
    },
    {
      "anonymous": false,
      "inputs": [
        {
          "indexed": false,
          "name": "upc",
          "type": "uint256"
        }
      ],
      "name": "Packed",
      "type": "event",
      "signature": "0x9b3b66e2380b690bae22c73ef1428fb0c91e72fe14a4b6defa13035214187aff"
    },
    {
      "anonymous": false,
      "inputs": [
        {
          "indexed": false,
          "name": "upc",
          "type": "uint256"
        }
      ],
      "name": "ForSale",
      "type": "event",
      "signature": "0xa96ae0fc3224ebd79eebfe54bd130cc9cb94416cddd1f2386115e00b72532468"
    },
    {
      "anonymous": false,
      "inputs": [
        {
          "indexed": false,
          "name": "upc",
          "type": "uint256"
        }
      ],
      "name": "Sold",
      "type": "event",
      "signature": "0x92f64ca637d023f354075a4be751b169c1a8a9ccb6d33cdd0cb3520543995727"
    },
    {
      "anonymous": false,
      "inputs": [
        {
          "indexed": false,
          "name": "upc",
          "type": "uint256"
        }
      ],
      "name": "Shipped",
      "type": "event",
      "signature": "0xf00b9a5725b80c54016f42114f6ed7792d22eecb116011c4afac29c57bef6c95"
    },
    {
      "anonymous": false,
      "inputs": [
        {
          "indexed": false,
          "name": "upc",
          "type": "uint256"
        }
      ],
      "name": "Received",
      "type": "event",
      "signature": "0xa8142743f8f70a4c26f3691cf4ed59718381fb2f18070ec52be1f1022d855557"
    },
    {
      "anonymous": false,
      "inputs": [
        {
          "indexed": false,
          "name": "upc",
          "type": "uint256"
        }
      ],
      "name": "Purchased",
      "type": "event",
      "signature": "0x653d56639fee6b566a5c804764e9689de38645f0b733df89a36a1b7b42173dd8"
    },
    {
      "anonymous": false,
      "inputs": [
        {
          "indexed": true,
          "name": "account",
          "type": "address"
        }
      ],
      "name": "DistributorAdded",
      "type": "event",
      "signature": "0xddbf200aa634dc3fb81cfd68583dd1040d1c751d335e1d86b631bde3e977fea8"
    },
    {
      "anonymous": false,
      "inputs": [
        {
          "indexed": true,
          "name": "account",
          "type": "address"
        }
      ],
      "name": "DistributorRemoved",
      "type": "event",
      "signature": "0x126174f6cf49c81cdb4a9214c6b8f037bef55b4ec31e4fc776cea2a1c8a88d59"
    },
    {
      "anonymous": false,
      "inputs": [
        {
          "indexed": true,
          "name": "account",
          "type": "address"
        }
      ],
      "name": "ManufacturerAdded",
      "type": "event",
      "signature": "0x561138658ca49a8540dc70dcfe64c9026c1c5b9344642242dd6562970f9c1278"
    },
    {
      "anonymous": false,
      "inputs": [
        {
          "indexed": true,
          "name": "account",
          "type": "address"
        }
      ],
      "name": "ManufacturerRemoved",
      "type": "event",
      "signature": "0x2fed5abf6a80d6dfe30b4895481b2fc5d7dce5f8f7b931832f4a2947d5040c7f"
    },
    {
      "anonymous": false,
      "inputs": [
        {
          "indexed": true,
          "name": "account",
          "type": "address"
        }
      ],
      "name": "PatientAdded",
      "type": "event",
      "signature": "0xa58cff07db0adda3ab7a40bd2f18ab57210bf38391a52ffd2e8eee6b8bdec71a"
    },
    {
      "anonymous": false,
      "inputs": [
        {
          "indexed": true,
          "name": "account",
          "type": "address"
        }
      ],
      "name": "PatientRemoved",
      "type": "event",
      "signature": "0x053a4badf166f01c4b02f6bcb71d2d67734470d0866282e291e73001aa25c769"
    },
    {
      "anonymous": false,
      "inputs": [
        {
          "indexed": true,
          "name": "account",
          "type": "address"
        }
      ],
      "name": "PharmacistAdded",
      "type": "event",
      "signature": "0x5a4264410853372bdd7255ebc9624cb523fc039cd6f9f1855165194738125f63"
    },
    {
      "anonymous": false,
      "inputs": [
        {
          "indexed": true,
          "name": "account",
          "type": "address"
        }
      ],
      "name": "PharmacistRemoved",
      "type": "event",
      "signature": "0x9d17ec7e57a5118cf27abf33370bcc6f007c27a9706ab4cc473a76fe552447d2"
    },
    {
      "constant": false,
      "inputs": [],
      "name": "kill",
      "outputs": [],
      "payable": false,
      "stateMutability": "nonpayable",
      "type": "function",
      "signature": "0x41c0e1b5"
    },
    {
      "constant": false,
      "inputs": [
        {
          "name": "_upc",
          "type": "uint256"
        },
        {
          "name": "_originManufacturerID",
          "type": "address"
        },
        {
          "name": "_originFactoryName",
          "type": "string"
        },
        {
          "name": "_originFactoryInformation",
          "type": "string"
        },
        {
          "name": "_originFactoryLatitude",
          "type": "string"
        },
        {
          "name": "_originFactoryLongitude",
          "type": "string"
        },
        {
          "name": "_medicineNotes",
          "type": "string"
        }
      ],
      "name": "makeMedicine",
      "outputs": [],
      "payable": false,
      "stateMutability": "nonpayable",
      "type": "function",
      "signature": "0xab77f959"
    },
    {
      "constant": false,
      "inputs": [
        {
          "name": "_upc",
          "type": "uint256"
        }
      ],
      "name": "packMedicine",
      "outputs": [],
      "payable": false,
      "stateMutability": "nonpayable",
      "type": "function",
      "signature": "0x3b7e1e86"
    },
    {
      "constant": false,
      "inputs": [
        {
          "name": "_upc",
          "type": "uint256"
        },
        {
          "name": "_price",
          "type": "uint256"
        }
      ],
      "name": "sellMedicine",
      "outputs": [],
      "payable": false,
      "stateMutability": "nonpayable",
      "type": "function",
      "signature": "0x1474b95d"
    },
    {
      "constant": false,
      "inputs": [
        {
          "name": "_upc",
          "type": "uint256"
        }
      ],
      "name": "buyMedicine",
      "outputs": [],
      "payable": true,
      "stateMutability": "payable",
      "type": "function",
      "signature": "0xfaac9e79"
    },
    {
      "constant": false,
      "inputs": [
        {
          "name": "_upc",
          "type": "uint256"
        }
      ],
      "name": "shipMedicine",
      "outputs": [],
      "payable": false,
      "stateMutability": "nonpayable",
      "type": "function",
      "signature": "0xc6d41453"
    },
    {
      "constant": false,
      "inputs": [
        {
          "name": "_upc",
          "type": "uint256"
        }
      ],
      "name": "receiveMedicine",
      "outputs": [],
      "payable": false,
      "stateMutability": "nonpayable",
      "type": "function",
      "signature": "0x3fe7cff7"
    },
    {
      "constant": false,
      "inputs": [
        {
          "name": "_upc",
          "type": "uint256"
        }
      ],
      "name": "purchaseMedicine",
      "outputs": [],
      "payable": false,
      "stateMutability": "nonpayable",
      "type": "function",
      "signature": "0x72cf2f24"
    },
    {
      "constant": true,
      "inputs": [
        {
          "name": "_upc",
          "type": "uint256"
        }
      ],
      "name": "fetchMedicineBufferOne",
      "outputs": [
        {
          "name": "medicineSKU",
          "type": "uint256"
        },
        {
          "name": "medicineUPC",
          "type": "uint256"
        },
        {
          "name": "ownerID",
          "type": "address"
        },
        {
          "name": "originManufacturerID",
          "type": "address"
        },
        {
          "name": "originFactoryName",
          "type": "string"
        },
        {
          "name": "originFactoryInformation",
          "type": "string"
        },
        {
          "name": "originFactoryLatitude",
          "type": "string"
        }
      ],
      "payable": false,
      "stateMutability": "view",
      "type": "function",
      "signature": "0x3800765f"
    },
    {
      "constant": true,
      "inputs": [
        {
          "name": "_upc",
          "type": "uint256"
        }
      ],
      "name": "fetchMedicineBufferTwo",
      "outputs": [
        {
          "name": "originFactoryLongitude",
          "type": "string"
        },
        {
          "name": "medicineNotes",
          "type": "string"
        },
        {
          "name": "medicinePrice",
          "type": "uint256"
        },
        {
          "name": "medicineState",
          "type": "uint8"
        },
        {
          "name": "distributorID",
          "type": "address"
        },
        {
          "name": "pharmacistID",
          "type": "address"
        },
        {
          "name": "patientID",
          "type": "address"
        }
      ],
      "payable": false,
      "stateMutability": "view",
      "type": "function",
      "signature": "0x0f9a1210"
    },
    {
      "constant": true,
      "inputs": [
        {
          "name": "_upc",
          "type": "uint256"
        }
      ],
      "name": "fetchMedicineBufferThree",
      "outputs": [
        {
          "name": "medicineSKU",
          "type": "uint256"
        },
        {
          "name": "medicineUPC",
          "type": "uint256"
        },
        {
          "name": "medicineID",
          "type": "uint256"
        }
      ],
      "payable": false,
      "stateMutability": "view",
      "type": "function",
      "signature": "0x2bc3f465"
    }
  ],
  "bytecode": "0x60806040526200001e33620000c3640100000000026401000000009004565b62000038336200012a640100000000026401000000009004565b620000523362000191640100000000026401000000009004565b6200006c33620001f8640100000000026401000000009004565b33600460006101000a81548173ffffffffffffffffffffffffffffffffffffffff021916908373ffffffffffffffffffffffffffffffffffffffff16021790555060006006819055506000600581905550620003b7565b620000e46000826200025f6401000000000262002105176401000000009004565b8073ffffffffffffffffffffffffffffffffffffffff167f5a4264410853372bdd7255ebc9624cb523fc039cd6f9f1855165194738125f6360405160405180910390a250565b6200014b6001826200025f6401000000000262002105176401000000009004565b8073ffffffffffffffffffffffffffffffffffffffff167fa58cff07db0adda3ab7a40bd2f18ab57210bf38391a52ffd2e8eee6b8bdec71a60405160405180910390a250565b620001b26002826200025f6401000000000262002105176401000000009004565b8073ffffffffffffffffffffffffffffffffffffffff167f561138658ca49a8540dc70dcfe64c9026c1c5b9344642242dd6562970f9c127860405160405180910390a250565b620002196003826200025f6401000000000262002105176401000000009004565b8073ffffffffffffffffffffffffffffffffffffffff167fddbf200aa634dc3fb81cfd68583dd1040d1c751d335e1d86b631bde3e977fea860405160405180910390a250565b600073ffffffffffffffffffffffffffffffffffffffff168173ffffffffffffffffffffffffffffffffffffffff16141515156200029c57600080fd5b620002b7828262000322640100000000026401000000009004565b151515620002c457600080fd5b60018260000160008373ffffffffffffffffffffffffffffffffffffffff1673ffffffffffffffffffffffffffffffffffffffff16815260200190815260200160002060006101000a81548160ff0219169083151502179055505050565b60008073ffffffffffffffffffffffffffffffffffffffff168273ffffffffffffffffffffffffffffffffffffffff16141515156200036057600080fd5b8260000160008373ffffffffffffffffffffffffffffffffffffffff1673ffffffffffffffffffffffffffffffffffffffff16815260200190815260200160002060009054906101000a900460ff16905092915050565b61237680620003c76000396000f300608060405260043610610133576000357c0100000000000000000000000000000000000000000000000000000000900463ffffffff1680630f9a1210146101385780631474b95d146102ff57806317d4a491146103365780632bc3f465146103915780633800765f146103e05780633b7e1e86146105d25780633fe7cff7146105ff57806341c0e1b51461062c5780635ae63247146106435780635f8a5afa1461065a578063644241db1461069d5780636d263ceb146106b45780637250e224146106f757806372cf2f241461073a57806381a07c361461076757806382946ee21461077e5780638f0c86fa146107d95780638f9c79ed14610834578063ab77f9591461088f578063c09e269314610a3a578063c6d4145314610a7d578063de07f34e14610aaa578063faac9e7914610ac1575b600080fd5b34801561014457600080fd5b5061016360048036038101908080359060200190929190505050610ae1565b60405180806020018060200188815260200187600681111561018157fe5b60ff1681526020018673ffffffffffffffffffffffffffffffffffffffff1673ffffffffffffffffffffffffffffffffffffffff1681526020018573ffffffffffffffffffffffffffffffffffffffff1673ffffffffffffffffffffffffffffffffffffffff1681526020018473ffffffffffffffffffffffffffffffffffffffff1673ffffffffffffffffffffffffffffffffffffffff16815260200183810383528a818151815260200191508051906020019080838360005b8381101561025757808201518184015260208101905061023c565b50505050905090810190601f1680156102845780820380516001836020036101000a031916815260200191505b50838103825289818151815260200191508051906020019080838360005b838110156102bd5780820151818401526020810190506102a2565b50505050905090810190601f1680156102ea5780820380516001836020036101000a031916815260200191505b50995050505050505050505060405180910390f35b34801561030b57600080fd5b506103346004803603810190808035906020019092919080359060200190929190505050610d49565b005b34801561034257600080fd5b50610377600480360381019080803573ffffffffffffffffffffffffffffffffffffffff169060200190929190505050610e35565b604051808215151515815260200191505060405180910390f35b34801561039d57600080fd5b506103bc60048036038101908080359060200190929190505050610e49565b60405180848152602001838152602001828152602001935050505060405180910390f35b3480156103ec57600080fd5b5061040b60048036038101908080359060200190929190505050610ea0565b604051808881526020018781526020018673ffffffffffffffffffffffffffffffffffffffff1673ffffffffffffffffffffffffffffffffffffffff1681526020018573ffffffffffffffffffffffffffffffffffffffff1673ffffffffffffffffffffffffffffffffffffffff168152602001806020018060200180602001848103845287818151815260200191508051906020019080838360005b838110156104c35780820151818401526020810190506104a8565b50505050905090810190601f1680156104f05780820380516001836020036101000a031916815260200191505b50848103835286818151815260200191508051906020019080838360005b8381101561052957808201518184015260208101905061050e565b50505050905090810190601f1680156105565780820380516001836020036101000a031916815260200191505b50848103825285818151815260200191508051906020019080838360005b8381101561058f578082015181840152602081019050610574565b50505050905090810190601f1680156105bc5780820380516001836020036101000a031916815260200191505b509a505050505050505050505060405180910390f35b3480156105de57600080fd5b506105fd60048036038101908080359060200190929190505050611176565b005b34801561060b57600080fd5b5061062a60048036038101908080359060200190929190505050611246565b005b34801561063857600080fd5b50610641611302565b005b34801561064f57600080fd5b50610658611395565b005b34801561066657600080fd5b5061069b600480360381019080803573ffffffffffffffffffffffffffffffffffffffff1690602001909291905050506113a0565b005b3480156106a957600080fd5b506106b26113c0565b005b3480156106c057600080fd5b506106f5600480360381019080803573ffffffffffffffffffffffffffffffffffffffff1690602001909291905050506113cb565b005b34801561070357600080fd5b50610738600480360381019080803573ffffffffffffffffffffffffffffffffffffffff1690602001909291905050506113eb565b005b34801561074657600080fd5b506107656004803603810190808035906020019092919050505061140b565b005b34801561077357600080fd5b5061077c6114db565b005b34801561078a57600080fd5b506107bf600480360381019080803573ffffffffffffffffffffffffffffffffffffffff1690602001909291905050506114e6565b604051808215151515815260200191505060405180910390f35b3480156107e557600080fd5b5061081a600480360381019080803573ffffffffffffffffffffffffffffffffffffffff1690602001909291905050506114fa565b604051808215151515815260200191505060405180910390f35b34801561084057600080fd5b50610875600480360381019080803573ffffffffffffffffffffffffffffffffffffffff16906020019092919050505061150e565b604051808215151515815260200191505060405180910390f35b34801561089b57600080fd5b50610a3860048036038101908080359060200190929190803573ffffffffffffffffffffffffffffffffffffffff169060200190929190803590602001908201803590602001908080601f0160208091040260200160405190810160405280939291908181526020018383808284378201915050505050509192919290803590602001908201803590602001908080601f0160208091040260200160405190810160405280939291908181526020018383808284378201915050505050509192919290803590602001908201803590602001908080601f0160208091040260200160405190810160405280939291908181526020018383808284378201915050505050509192919290803590602001908201803590602001908080601f0160208091040260200160405190810160405280939291908181526020018383808284378201915050505050509192919290803590602001908201803590602001908080601f0160208091040260200160405190810160405280939291908181526020018383808284378201915050505050509192919290505050611522565b005b348015610a4657600080fd5b50610a7b600480360381019080803573ffffffffffffffffffffffffffffffffffffffff169060200190929190505050611914565b005b348015610a8957600080fd5b50610aa860048036038101908080359060200190929190505050611934565b005b348015610ab657600080fd5b50610abf611b03565b005b610adf60048036038101908080359060200190929190505050611b0e565b005b606080600080600080600060076000898152602001908152602001600020600701600760008a8152602001908152602001600020600901600760008b8152602001908152602001600020600a0154600760008c8152602001908152602001600020600b0160009054906101000a900460ff16600760008d8152602001908152602001600020600b0160019054906101000a900473ffffffffffffffffffffffffffffffffffffffff16600760008e8152602001908152602001600020600c0160009054906101000a900473ffffffffffffffffffffffffffffffffffffffff16600760008f8152602001908152602001600020600d0160009054906101000a900473ffffffffffffffffffffffffffffffffffffffff16868054600181600116156101000203166002900480601f016020809104026020016040519081016040528092919081815260200182805460018160011615610100020316600290048015610c8d5780601f10610c6257610100808354040283529160200191610c8d565b820191906000526020600020905b815481529060010190602001808311610c7057829003601f168201915b50505050509650858054600181600116156101000203166002900480601f016020809104026020016040519081016040528092919081815260200182805460018160011615610100020316600290048015610d295780601f10610cfe57610100808354040283529160200191610d29565b820191906000526020600020905b815481529060010190602001808311610d0c57829003601f168201915b505050505095509650965096509650965096509650919395979092949650565b8160016006811115610d5757fe5b60076000838152602001908152602001600020600b0160009054906101000a900460ff166006811115610d8657fe5b141515610d9257600080fd5b610d9b33610e35565b1515610da657600080fd5b600260076000858152602001908152602001600020600b0160006101000a81548160ff02191690836006811115610dd957fe5b02179055508160076000858152602001908152602001600020600a01819055507fa96ae0fc3224ebd79eebfe54bd130cc9cb94416cddd1f2386115e00b72532468836040518082815260200191505060405180910390a1505050565b6000610e42600283611d3a565b9050919050565b60008060006007600085815260200190815260200160002060000154600760008681526020019081526020016000206001015460076000878152602001908152602001600020600801549250925092509193909250565b60008060008060608060606007600089815260200190815260200160002060000154600760008a815260200190815260200160002060010154600760008b815260200190815260200160002060020160009054906101000a900473ffffffffffffffffffffffffffffffffffffffff16600760008c815260200190815260200160002060030160009054906101000a900473ffffffffffffffffffffffffffffffffffffffff16600760008d8152602001908152602001600020600401600760008e8152602001908152602001600020600501600760008f8152602001908152602001600020600601828054600181600116156101000203166002900480601f01602080910402602001604051908101604052809291908181526020018280546001816001161561010002031660029004801561101e5780601f10610ff35761010080835404028352916020019161101e565b820191906000526020600020905b81548152906001019060200180831161100157829003601f168201915b50505050509250818054600181600116156101000203166002900480601f0160208091040260200160405190810160405280929190818152602001828054600181600116156101000203166002900480156110ba5780601f1061108f576101008083540402835291602001916110ba565b820191906000526020600020905b81548152906001019060200180831161109d57829003601f168201915b50505050509150808054600181600116156101000203166002900480601f0160208091040260200160405190810160405280929190818152602001828054600181600116156101000203166002900480156111565780601f1061112b57610100808354040283529160200191611156565b820191906000526020600020905b81548152906001019060200180831161113957829003601f168201915b505050505090509650965096509650965096509650919395979092949650565b806000600681111561118457fe5b60076000838152602001908152602001600020600b0160009054906101000a900460ff1660068111156111b357fe5b1415156111bf57600080fd5b6111c833610e35565b15156111d357600080fd5b600160076000848152602001908152602001600020600b0160006101000a81548160ff0219169083600681111561120657fe5b02179055507f9b3b66e2380b690bae22c73ef1428fb0c91e72fe14a4b6defa13035214187aff826040518082815260200191505060405180910390a15050565b806004600681111561125457fe5b60076000838152602001908152602001600020600b0160009054906101000a900460ff16600681111561128357fe5b14151561128f57600080fd5b600560076000848152602001908152602001600020600b0160006101000a81548160ff021916908360068111156112c257fe5b02179055507fa8142743f8f70a4c26f3691cf4ed59718381fb2f18070ec52be1f1022d855557826040518082815260200191505060405180910390a15050565b600460009054906101000a900473ffffffffffffffffffffffffffffffffffffffff1673ffffffffffffffffffffffffffffffffffffffff163373ffffffffffffffffffffffffffffffffffffffff16141561139357600460009054906101000a900473ffffffffffffffffffffffffffffffffffffffff1673ffffffffffffffffffffffffffffffffffffffff16ff5b565b61139e33611dce565b565b6113a933610e35565b15156113b457600080fd5b6113bd81611e1f565b50565b6113c933611e70565b565b6113d43361150e565b15156113df57600080fd5b6113e881611ec1565b50565b6113f4336114fa565b15156113ff57600080fd5b61140881611f12565b50565b806005600681111561141957fe5b60076000838152602001908152602001600020600b0160009054906101000a900460ff16600681111561144857fe5b14151561145457600080fd5b61145d3361150e565b151561146857600080fd5b600660076000848152602001908152602001600020600b0160006101000a81548160ff0219169083600681111561149b57fe5b02179055507f653d56639fee6b566a5c804764e9689de38645f0b733df89a36a1b7b42173dd8826040518082815260200191505060405180910390a15050565b6114e433611f63565b565b60006114f3600083611d3a565b9050919050565b6000611507600383611d3a565b9050919050565b600061151b600183611d3a565b9050919050565b61152a6121b5565b61153333610e35565b151561153e57600080fd5b6101e06040519081016040528060016006540181526020018981526020018873ffffffffffffffffffffffffffffffffffffffff1681526020018873ffffffffffffffffffffffffffffffffffffffff1681526020018781526020018681526020018581526020018481526020018960065401815260200183815260200160008152602001600060068111156115d057fe5b8152602001600073ffffffffffffffffffffffffffffffffffffffff168152602001600073ffffffffffffffffffffffffffffffffffffffff168152602001600073ffffffffffffffffffffffffffffffffffffffff16815250905080600760008a8152602001908152602001600020600082015181600001556020820151816001015560408201518160020160006101000a81548173ffffffffffffffffffffffffffffffffffffffff021916908373ffffffffffffffffffffffffffffffffffffffff16021790555060608201518160030160006101000a81548173ffffffffffffffffffffffffffffffffffffffff021916908373ffffffffffffffffffffffffffffffffffffffff16021790555060808201518160040190805190602001906116fe9291906122a5565b5060a082015181600501908051906020019061171b9291906122a5565b5060c08201518160060190805190602001906117389291906122a5565b5060e08201518160070190805190602001906117559291906122a5565b50610100820151816008015561012082015181600901908051906020019061177e9291906122a5565b5061014082015181600a015561016082015181600b0160006101000a81548160ff021916908360068111156117af57fe5b021790555061018082015181600b0160016101000a81548173ffffffffffffffffffffffffffffffffffffffff021916908373ffffffffffffffffffffffffffffffffffffffff1602179055506101a082015181600c0160006101000a81548173ffffffffffffffffffffffffffffffffffffffff021916908373ffffffffffffffffffffffffffffffffffffffff1602179055506101c082015181600d0160006101000a81548173ffffffffffffffffffffffffffffffffffffffff021916908373ffffffffffffffffffffffffffffffffffffffff1602179055509050506000600760008a8152602001908152602001600020600b0160006101000a81548160ff021916908360068111156118c257fe5b02179055506001600654016006819055507feb8109592a383473c76afa62041a6dbabac0ca80d859bbdffb13c5a70c454b90886040518082815260200191505060405180910390a15050505050505050565b61191d336114e6565b151561192857600080fd5b61193181611fb4565b50565b806003600681111561194257fe5b60076000838152602001908152602001600020600b0160009054906101000a900460ff16600681111561197157fe5b14151561197d57600080fd5b61198633610e35565b151561199157600080fd5b3373ffffffffffffffffffffffffffffffffffffffff166007600084815260200190815260200160002060030160009054906101000a900473ffffffffffffffffffffffffffffffffffffffff1673ffffffffffffffffffffffffffffffffffffffff16141515611a90576040517f08c379a000000000000000000000000000000000000000000000000000000000815260040180806020018281038252602d8152602001807f4d616e756661637475726572732063616e2073686970206f6e6c79206d65646981526020017f63696e6573206279207468656d0000000000000000000000000000000000000081525060400191505060405180910390fd5b600460076000848152602001908152602001600020600b0160006101000a81548160ff02191690836006811115611ac357fe5b02179055507ff00b9a5725b80c54016f42114f6ed7792d22eecb116011c4afac29c57bef6c95826040518082815260200191505060405180910390a15050565b611b0c33612005565b565b8060026006811115611b1c57fe5b60076000838152602001908152602001600020600b0160009054906101000a900460ff166006811115611b4b57fe5b141515611b5757600080fd5b60076000838152602001908152602001600020600a0154803410151515611b7d57600080fd5b82600080611b8a336114fa565b1515611b9557600080fd5b600360076000888152602001908152602001600020600b0160006101000a81548160ff02191690836006811115611bc857fe5b02179055506007600087815260200190815260200160002060030160009054906101000a900473ffffffffffffffffffffffffffffffffffffffff1673ffffffffffffffffffffffffffffffffffffffff166108fc60076000898152602001908152602001600020600a01549081150290604051600060405180830381858888f19350505050158015611c5f573d6000803e3d6000fd5b507f92f64ca637d023f354075a4be751b169c1a8a9ccb6d33cdd0cb3520543995727866040518082815260200191505060405180910390a160076000848152602001908152602001600020600a01549150813403905060076000848152602001908152602001600020600d0160009054906101000a900473ffffffffffffffffffffffffffffffffffffffff1673ffffffffffffffffffffffffffffffffffffffff166108fc829081150290604051600060405180830381858888f19350505050158015611d31573d6000803e3d6000fd5b50505050505050565b60008073ffffffffffffffffffffffffffffffffffffffff168273ffffffffffffffffffffffffffffffffffffffff1614151515611d7757600080fd5b8260000160008373ffffffffffffffffffffffffffffffffffffffff1673ffffffffffffffffffffffffffffffffffffffff16815260200190815260200160002060009054906101000a900460ff16905092915050565b611dd9600082612056565b8073ffffffffffffffffffffffffffffffffffffffff167f9d17ec7e57a5118cf27abf33370bcc6f007c27a9706ab4cc473a76fe552447d260405160405180910390a250565b611e2a600282612105565b8073ffffffffffffffffffffffffffffffffffffffff167f561138658ca49a8540dc70dcfe64c9026c1c5b9344642242dd6562970f9c127860405160405180910390a250565b611e7b600382612056565b8073ffffffffffffffffffffffffffffffffffffffff167f126174f6cf49c81cdb4a9214c6b8f037bef55b4ec31e4fc776cea2a1c8a88d5960405160405180910390a250565b611ecc600182612105565b8073ffffffffffffffffffffffffffffffffffffffff167fa58cff07db0adda3ab7a40bd2f18ab57210bf38391a52ffd2e8eee6b8bdec71a60405160405180910390a250565b611f1d600382612105565b8073ffffffffffffffffffffffffffffffffffffffff167fddbf200aa634dc3fb81cfd68583dd1040d1c751d335e1d86b631bde3e977fea860405160405180910390a250565b611f6e600182612056565b8073ffffffffffffffffffffffffffffffffffffffff167f053a4badf166f01c4b02f6bcb71d2d67734470d0866282e291e73001aa25c76960405160405180910390a250565b611fbf600082612105565b8073ffffffffffffffffffffffffffffffffffffffff167f5a4264410853372bdd7255ebc9624cb523fc039cd6f9f1855165194738125f6360405160405180910390a250565b612010600282612056565b8073ffffffffffffffffffffffffffffffffffffffff167f2fed5abf6a80d6dfe30b4895481b2fc5d7dce5f8f7b931832f4a2947d5040c7f60405160405180910390a250565b600073ffffffffffffffffffffffffffffffffffffffff168173ffffffffffffffffffffffffffffffffffffffff161415151561209257600080fd5b61209c8282611d3a565b15156120a757600080fd5b60008260000160008373ffffffffffffffffffffffffffffffffffffffff1673ffffffffffffffffffffffffffffffffffffffff16815260200190815260200160002060006101000a81548160ff0219169083151502179055505050565b600073ffffffffffffffffffffffffffffffffffffffff168173ffffffffffffffffffffffffffffffffffffffff161415151561214157600080fd5b61214b8282611d3a565b15151561215757600080fd5b60018260000160008373ffffffffffffffffffffffffffffffffffffffff1673ffffffffffffffffffffffffffffffffffffffff16815260200190815260200160002060006101000a81548160ff0219169083151502179055505050565b6101e0604051908101604052806000815260200160008152602001600073ffffffffffffffffffffffffffffffffffffffff168152602001600073ffffffffffffffffffffffffffffffffffffffff168152602001606081526020016060815260200160608152602001606081526020016000815260200160608152602001600081526020016000600681111561224857fe5b8152602001600073ffffffffffffffffffffffffffffffffffffffff168152602001600073ffffffffffffffffffffffffffffffffffffffff168152602001600073ffffffffffffffffffffffffffffffffffffffff1681525090565b828054600181600116156101000203166002900490600052602060002090601f016020900481019282601f106122e657805160ff1916838001178555612314565b82800160010185558215612314579182015b828111156123135782518255916020019190600101906122f8565b5b5090506123219190612325565b5090565b61234791905b8082111561234357600081600090555060010161232b565b5090565b905600a165627a7a72305820c88936129c696db43dcfbabe956b1e8cb2e5aa3f68999159942a7cf0c22ef49d0029",
  "source": "pragma solidity ^0.4.24;\n\nimport \"../medicineaccesscontrol/Roles.sol\";\nimport \"../medicineaccesscontrol/DistributorRole.sol\";\nimport \"../medicineaccesscontrol/ManufacturerRole.sol\";\nimport \"../medicineaccesscontrol/PatientRole.sol\";\nimport \"../medicineaccesscontrol/PharmacistRole.sol\";\nimport \"../medicinecore/Ownable.sol\";\n\n// Define a contract 'Supplychain'\n\ncontract SupplyChain is PharmacistRole, PatientRole, ManufacturerRole, DistributorRole {\n\n  // Define 'owner'\n  address owner;\n\n  // Define a variable called 'upc' for Universal Product Code (UPC)\n  uint  upc;\n\n  // Define a variable called 'sku' for Stock Keeping Unit (SKU)\n  uint  sku;\n\n  // Define a public mapping 'medicines' that maps the UPC to an Medicine.\n  mapping (uint => Medicine) medicines;\n\n  // Define a public mapping 'medicinesHistory' that maps the UPC to an array of TxHash, \n  // that track its journey through the supply chain -- to be sent from DApp.\n  mapping (uint => string[]) medicinesHistory;\n  \n  // Define enum 'State' with the following values:\n  enum State \n  { \n    Made,       // 0\n    Packed,     // 1\n    ForSale,    // 2\n    Sold,       // 3\n    Shipped,    // 4\n    Received,   // 5\n    Purchased   // 6\n  }\n\n  State constant defaultState = State.Made;\n\n  // Define a struct 'Medicine' with the following fields:\n  struct Medicine {\n    uint    sku;  // Stock Keeping Unit (SKU)\n    uint    upc; // Universal Product Code (UPC), generated by the Manufacturer, goes on the package, can be verified by the Patient\n    address ownerID;  // Metamask-Ethereum address of the current owner as the medicine moves through 8 stages\n    address originManufacturerID; // Metamask-Ethereum address of the Manufacturer\n    string  originFactoryName; // Manufacturer Name\n    string  originFactoryInformation;  // Manufacturer Information\n    string  originFactoryLatitude; // Factory Latitude\n    string  originFactoryLongitude;  // Factory Longitude\n    uint    medicineID;  // Product ID potentially a combination of upc + sku\n    string  medicineNotes; // Product Notes\n    uint    medicinePrice; // Product Price\n    State   medicineState;  // Product State as represented in the enum above\n    address distributorID;  // Metamask-Ethereum address of the Distributor\n    address pharmacistID; // Metamask-Ethereum address of the Pharmacist\n    address patientID; // Metamask-Ethereum address of the Patient\n  }\n\n  // Define 8 events with the same 7 state values and accept 'upc' as input argument\n  event Made(uint upc);\n  event Packed(uint upc);\n  event ForSale(uint upc);\n  event Sold(uint upc);\n  event Shipped(uint upc);\n  event Received(uint upc);\n  event Purchased(uint upc);\n\n  // Define a modifer that checks to see if msg.sender == owner of the contract\n  modifier onlyOwner() {\n    require(msg.sender == owner);\n    _;\n  }\n\n  // Define a modifer that verifies the Caller\n  modifier verifyCaller (address _address) {\n    require(msg.sender == _address); \n    _;\n  }\n\n  // Define a modifier that checks if the paid amount is sufficient to cover the price\n  modifier paidEnough(uint _price) { \n    require(msg.value >= _price); \n    _;\n  }\n  \n  // Define a modifier that checks the price and refunds the remaining balance\n  modifier checkValue(uint _upc) {\n    _;\n    uint _price = medicines[_upc].medicinePrice;\n    uint amountToReturn = msg.value - _price;\n    medicines[_upc].patientID.transfer(amountToReturn);\n  }\n\n  // Define a modifier that checks if an medicine.state of a upc is Made\n  modifier made(uint _upc) {\n    require(medicines[_upc].medicineState == State.Made);\n    _;\n  }\n  \n  // Define a modifier that checks if an medicine.state of a upc is Packed\n  modifier packed(uint _upc) {\n    require(medicines[_upc].medicineState == State.Packed);\n\n    _;\n  }\n\n  // Define a modifier that checks if an medicine.state of a upc is ForSale\n  modifier forSale(uint _upc) {\n    require(medicines[_upc].medicineState == State.ForSale);\n\n    _;\n  }\n\n  // Define a modifier that checks if an medicine.state of a upc is Sold\n  modifier sold(uint _upc) {\n    require(medicines[_upc].medicineState == State.Sold);\n\n    _;\n  }\n  \n  // Define a modifier that checks if an medicine.state of a upc is Shipped\n  modifier shipped(uint _upc) {\n    require(medicines[_upc].medicineState == State.Shipped);\n\n    _;\n  }\n\n  // Define a modifier that checks if an medicine.state of a upc is Received\n  modifier received(uint _upc) {\n    require(medicines[_upc].medicineState == State.Received);\n\n    _;\n  }\n\n  // Define a modifier that checks if an medicine.state of a upc is Purchased\n  modifier purchased(uint _upc) {\n    require(medicines[_upc].medicineState == State.Purchased);\n    _;\n  }\n\n  // In the constructor set 'owner' to the address that instantiated the contract\n  // and set 'sku' to 1\n  // and set 'upc' to 1\n  constructor() public payable {\n    owner = msg.sender;\n    sku = 0;\n    upc = 0;\n  }\n\n  // Define a function 'kill' if required\n  function kill() public {\n    if (msg.sender == owner) {\n      selfdestruct(owner);\n    }\n  }\n\n  // Define a function 'makeMedicine' that allows a manufacturer to mark a medicine 'Made'\n  function makeMedicine(uint _upc, address _originManufacturerID, string _originFactoryName, string _originFactoryInformation, string  _originFactoryLatitude, string  _originFactoryLongitude, string  _medicineNotes) public\n  \n  onlyManufacturer\n\n  {\n    // Add the new medicine as part of medicines\n    Medicine memory temp_medicine = Medicine({\n      sku:sku + 1,\n      upc:_upc,\n      ownerID:_originManufacturerID,\n      originManufacturerID:_originManufacturerID,\n      originFactoryName:_originFactoryName,\n      originFactoryInformation:_originFactoryInformation,\n      originFactoryLatitude:_originFactoryLatitude,\n      originFactoryLongitude:_originFactoryLongitude,\n      medicineID:sku+_upc,\n      medicineNotes:_medicineNotes,\n      medicineState:State.Made,\n      medicinePrice:0,\n      distributorID:0,\n      pharmacistID:0,\n      patientID:0\n\n      });\n    medicines[_upc] = temp_medicine;\n    medicines[_upc].medicineState = State.Made;\n\n// uint    sku;  // Stock Keeping Unit (SKU)\n//     uint    upc; // Universal Product Code (UPC), generated by the Manufacturer, goes on the package, can be verified by the Patient\n//     address ownerID;  // Metamask-Ethereum address of the current owner as the medicine moves through 8 stages\n//     address originManufacturerID; // Metamask-Ethereum address of the Manufacturer\n//     string  originFactoryName; // Manufacturer Name\n//     string  originFactoryInformation;  // Manufacturer Information\n//     string  originFactoryLatitude; // Factory Latitude\n//     string  originFactoryLongitude;  // Factory Longitude\n//     uint    medicineID;  // Product ID potentially a combination of upc + sku\n//     string  medicineNotes; // Product Notes\n//     uint    medicinePrice; // Product Price\n//     State   medicineState;  // Product State as represented in the enum above\n//     address distributorID;  // Metamask-Ethereum address of the Distributor\n//     address pharmacistID; // Metamask-Ethereum address of the Pharmacist\n//     address patientID; // Metamask-Ethereum address of the Patient\n\n\n\n\n    // Increment sku\n    sku = sku + 1;\n    // Emit the appropriate event\n\n    emit Made(_upc);\n  }\n\n\n  // Define a function 'packMedicine' that allows a manufacturer to mark an medicine 'Packed'\n  function packMedicine(uint _upc) public \n  // Call modifier to check if upc has passed previous supply chain stage\n  made(_upc)\n  // Call modifier to verify caller of this function\n  onlyManufacturer\n  {\n    // Update the appropriate fields\n    medicines[_upc].medicineState = State.Packed;\n\n    // Emit the appropriate event\n    emit Packed(_upc);\n  }\n\n  // Define a function 'sellMedicine' that allows a manufacturer to mark an medicine 'ForSale'\n  function sellMedicine(uint _upc, uint _price) public \n  // Call modifier to check if upc has passed previous supply chain stage\n  packed(_upc)\n  // Call modifier to verify caller of this function\n  onlyManufacturer\n\n  {\n    // Update the appropriate fields\n    medicines[_upc].medicineState = State.ForSale;\n    medicines[_upc].medicinePrice = _price;\n    // Emit the appropriate event\n    emit ForSale(_upc);\n  }\n\n  // Define a function 'buyMedicine' that allows the disributor to mark an medicine 'Sold'\n  // Use the above defined modifiers to check if the medicine is available for sale, if the buyer has paid enough, \n  // and any excess ether sent is refunded back to the buyer\n  function buyMedicine(uint _upc) public payable \n    // Call modifier to check if upc has passed previous supply chain stage\n    forSale(_upc)\n    // Call modifer to check if buyer has paid enough\n    paidEnough(medicines[_upc].medicinePrice)\n    // Call modifer to send any excess ether back to buyer\n    checkValue(_upc)\n    //limit to distributers , no end consumers are allowed to buy from factory.\n    onlyDistributor\n    {\n\n      // Update the appropriate fields - ownerID, distributorID, medicineState\n      medicines[_upc].medicineState = State.Sold;\n      // Transfer money to manufacturer\n      medicines[_upc].originManufacturerID.transfer(medicines[_upc].medicinePrice);\n      // emit the appropriate event\n      emit Sold(_upc);\n    }\n\n  // Define a function 'shipMedicine' that allows the distributor to mark an medicine 'Shipped'\n  // Use the above modifers to check if the medicine is sold\n  function shipMedicine(uint _upc) public \n    // Call modifier to check if upc has passed previous supply chain stage\n    sold(_upc)\n    // Call modifier to verify caller of this function\n    onlyManufacturer\n    {\n      //check if the factory is the one making this medicine.\n      require(medicines[_upc].originManufacturerID == msg.sender,\"Manufacturers can ship only medicines by them\");\n      // Update the appropriate fields\n      medicines[_upc].medicineState = State.Shipped;\n      // Emit the appropriate event\n      emit Shipped(_upc);\n    }\n\n  // Define a function 'receiveMedicine' that allows the pharmacist to mark an medicine 'Received'\n  // Use the above modifiers to check if the medicine is shipped\n  function receiveMedicine(uint _upc) public \n    // Call modifier to check if upc has passed previous supply chain stage\n    shipped(_upc)\n    // Access Control List enforced by calling Smart Contract / DApp\n    {\n    // Update the appropriate fields - ownerID, pharmacistID, medicineState\n    medicines[_upc].medicineState = State.Received;\n\n    // Emit the appropriate event\n    emit Received(_upc);\n  }\n\n  // Define a function 'purchaseMedicine' that allows the patient to mark an medicine 'Purchased'\n  // Use the above modifiers to check if the medicine is received\n  function purchaseMedicine(uint _upc) public \n    // Call modifier to check if upc has passed previous supply chain stage\n    received(_upc)\n    // Access Control List enforced by calling Smart Contract / DApp\n    onlyPatient\n    {\n      // Up    medicines[_upc].medicineState = State.Shipped;\n      medicines[_upc].medicineState = State.Purchased;\n\n      // Emit the appropriate event\n      emit Purchased(_upc);\n    }\n\n  // Define a function 'fetchMedicineBufferOne' that fetches the data\n  function fetchMedicineBufferOne(uint _upc) public view returns \n  (\n    uint    medicineSKU,\n    uint    medicineUPC,\n    address ownerID,\n    address originManufacturerID,\n    string  originFactoryName,\n    string  originFactoryInformation,\n    string  originFactoryLatitude\n    // string  originFactoryLongitude\n    ) \n  {\n  // Assign values to the 7 parameters\n  \n\n  return \n  (\n    medicines[_upc].sku,\n    medicines[_upc].upc,\n    medicines[_upc].ownerID,\n    medicines[_upc].originManufacturerID,\n    medicines[_upc].originFactoryName,\n    medicines[_upc].originFactoryInformation,\n    medicines[_upc].originFactoryLatitude\n    // medicines[_upc].originFactoryLongitude\n    );\n}\n\n  // Define a function 'fetchMedicineBufferTwo' that fetches the data\n  function fetchMedicineBufferTwo(uint _upc) public view returns \n  (\n    // uint    medicineSKU,\n    // uint    medicineUPC,\n    // uint    medicineID,\n    string  originFactoryLongitude,\n    string  medicineNotes,\n    uint    medicinePrice,\n    State    medicineState,\n    address distributorID,\n    address pharmacistID,\n    address patientID\n    ) \n  {\n    // Assign values to the 7 parameters\n\n    \n    return \n    (\n      // medicines[_upc].sku,\n      // medicines[_upc].upc,\n      // medicines[_upc].medicineID,\n      medicines[_upc].originFactoryLongitude,\n      medicines[_upc].medicineNotes,\n      medicines[_upc].medicinePrice,\n      medicines[_upc].medicineState,\n      medicines[_upc].distributorID,\n      medicines[_upc].pharmacistID,\n      medicines[_upc].patientID\n      );\n  }\n\n  // Define a function 'fetchMedicineBufferThree' that fetches the data\n  function fetchMedicineBufferThree(uint _upc) public view returns \n  (\n    uint    medicineSKU,\n    uint    medicineUPC,\n    uint    medicineID\n    ) \n  {\n    // Assign values to the 3 parameters\n\n    \n    return \n    (\n      medicines[_upc].sku,\n      medicines[_upc].upc,\n      medicines[_upc].medicineID\n      \n      );\n  }\n\n\n}\n\n",
  "sourcePath": "/Users/iSh3lan/Udacity/Block Chain/Project 7/p6b_ex/project-6/contracts/medicinebase/SupplyChain.sol",
  "compiler": {
    "name": "solc",
    "version": "0.4.24+commit.e67f0147.Emscripten.clang"
  },
  "schemaVersion": "3.0.1",
  "updatedAt": "2019-03-31T18:40:11.915Z",
  "devdoc": {
    "methods": {}
  },
  "userdoc": {
    "methods": {}
  }
}